:100000000C9462010C94830E0C945C0E0C948A0187
:100010000C948A010C948A010C94AA0E0C948A0107
:100020000C948A010C948A010C948A010C94C10EE0
:100030000C948A010C948A010C948A010C948A0114
:100040000C94120E0C948A010C94E00D0C94BA0DD1
:100050000C948A010C948A010C948A010C948A01F4
:100060000C948A010C948A010000000024002700EF
:100070002A0000000000250028002B0000000000DE
:1000800023002600290004040404040404040202DA
:100090000202020203030303030301020408102007
:1000A0004080010204081020010204081020000012
:1000B0000008000201000003040700000000000027
:1000C00000002B03F42041890036400A1D80601097
:1000D000622C00082B03F42041890036400A1D8061
:1000E0006010622C33082B03F42041890036400A4B
:1000F0001D806010622C22081B03416027520007FC
:10010000400A1E806013A92C223A1D03A1204EA58F
:100110000013400A1E806027522C22481E03D00084
:100120009D490045400A2080604EA52C22482B03A3
:100130003402752507FF400A1B80609D492C220F61
:10014000020368013A9304D5400A1E806009D50C69
:10015000221F06034501D7DC076E400A2D80600E82
:10016000BF0C222E8A036001555502AD400A508013
:100170006020000C22C82703A1E010C70006400A37
:100180001D806009D52C22072703A1E010C70006B7
:10019000400A1D806013A92C22072B03F4204189FB
:1001A0000036400A1D806010622C23081B0341604A
:1001B00027520007400A1E806013A92C233A1D0312
:1001C000A1204EA50013400A1E806027522C234810
:1001D0001E03D0009D490045400A2080604EA52C9A
:1001E00023482B033402752507FF400A1B80609DBE
:1001F000492C230F020368013A9304D5400A1E805C
:100200006009D50C231F06034501D7DC076E400AA1
:100210002D80600EBF0C232E8A036001555502AD60
:10022000400A50806020000C23C8510368003A93B4
:10023000013D2C1128806009D52C2108C8033920E4
:1002400068DC006B2A082A806013A92C2108C803E7
:100250009C00D1B700D4290429806027522C2108A2
:10026000B8039C00D1B700D428822980604EA52C09
:100270002108A8039C00D1B700D428412980609DA3
:10028000492C210898039C00D1B700D4282029804C
:100290006009D50C210898039600DA7400DC281F49
:1002A0002980600A3D0C2108544553542043616C59
:1002B0006C232564005445535420546573742325DE
:1002C0006400ED0F11241FBECFEFD8E0DEBFCDBF1D
:1002D00011E0A0E0B1E0E8E7FEE202C005900D9277
:1002E000A23CB107D9F724E0A2ECB1E001C01D9215
:1002F000A437B207E1F711E0C2E6D1E004C02197CC
:10030000FE010E941817C136D107C9F70E94561086
:100310000C943A170C940000E82FF0E0EE0FFF1F4A
:10032000EF5FFE4F71836083813041F080916900FF
:100330008C7F826080936900E89A089580916900BB
:10034000837F886080936900E99A0895CF92DF9255
:10035000EF92FF920F931F93AB01BC01DC01CA0126
:1003600025E130E0B7FF04C000E2A0270DEEB02782
:10037000880F991FAA1FBB1F2150310999F7F5E17A
:10038000B695A79597958795FA95D1F78C019D011C
:10039000042B152B262B372BC901B8016B017C01CF
:1003A00040E250E000E010E09801F7FE04C00F5F6B
:1003B0001F4F2F4F3F4FCC0CDD1CEE1CFF1C41503C
:1003C000510999F700FF04C06F5F7F4F8F4F9F4F18
:1003D0001F910F91FF90EF90DF90CF90089526E04E
:1003E00030E090E0482F50E080FD9160990F5595E6
:1003F0004795842F21503109A9F740FD9160892F3D
:100400000895AF92BF92CF92DF92EF92FF920F9337
:100410001F93CF93DF936C017B018B01040F151F9A
:10042000EB015E01AE18BF08C017D10759F0699102
:10043000D601ED91FC910190F081E02DC601099566
:10044000892B79F7C501DF91CF911F910F91FF9013
:10045000EF90DF90CF90BF90AF900895FC01538D47
:10046000448D252F30E0842F90E0821B930B54178E
:1004700010F0CF96089501970895FC01918D828D1B
:10048000981761F0A28DAE0FBF2FB11D5D968C91B4
:10049000928D9F5F9F73928F90E008958FEF9FEFF3
:1004A0000895FC01918D828D981731F0828DE80FAF
:1004B000F11D858D90E008958FEF9FEF0895FC0169
:1004C000918D228D892F90E0805C9F4F821B910936
:1004D0008F739927089585ED91E00E945F0221E0D6
:1004E000892B09F420E0822F089580E090E0892B89
:1004F00029F00E946B0281110C9400000895FC0108
:10050000A48DA80FB92FB11DA35ABF4F2C91848D74
:1005100090E001968F739927848FA689B7892C93D1
:10052000A089B1898C91837080648C93938D848D24
:10053000981306C00288F389E02D80818F7D808327
:100540000895EF92FF920F931F93CF93DF93EC01E7
:1005500081E0888F9B8D8C8D98131AC0E889F9896A
:10056000808185FF15C09FB7F894EE89FF8960836D
:10057000E889F98980818370806480839FBF81E0EE
:1005800090E0DF91CF911F910F91FF90EF90089530
:10059000F62E0B8D10E00F5F1F4F0F731127E02E0B
:1005A0008C8D8E110CC00FB607FCFACFE889F98943
:1005B000808185FFF5CFCE010E947F02F1CFEB8DC8
:1005C000EC0FFD2FF11DE35AFF4FF0829FB7F89417
:1005D0000B8FEA89FB8980818062CFCFCF93DF9335
:1005E000EC01888D8823B9F0AA89BB89E889F9894B
:1005F0008C9185FD03C0808186FD0DC00FB607FC80
:10060000F7CF8C9185FFF2CF808185FFEDCFCE01B2
:100610000E947F02E9CFDF91CF910895833081F06E
:1006200028F4813099F08230A9F008958730A9F03C
:100630008830C9F08430B1F4809180008F7D03C090
:10064000809180008F7780938000089584B58F77A4
:1006500084BD089584B58F7DFBCF8091B0008F77E6
:100660008093B00008958091B0008F7DF9CFCF9333
:10067000DF93282F30E0F901E255FF4F8491F90113
:10068000E656FF4FD491F901EA57FF4FC491CC23AE
:10069000A1F081110E940E03EC2FF0E0EE0FFF1F7E
:1006A000E458FF4FA591B491EC91ED2381E090E0E7
:1006B00009F480E0DF91CF91089580E090E0FACFD7
:1006C0001F93CF93DF93282F30E0F901E255FF4FBE
:1006D0008491F901E656FF4FD491F901EA57FF4F93
:1006E000C491CC23A9F0162F81110E940E03EC2F88
:1006F000F0E0EE0FFF1FEE58FF4FA591B4918FB7BA
:10070000F894EC91111108C0D095DE23DC938FBFD3
:10071000DF91CF911F910895DE2BF8CF61E081E149
:100720000E94600384E00E943703892B39F081E046
:100730008093D40160E081E10C94600382E0F8CF03
:10074000CF93DF9390E0FC01E656FF4F24918A5748
:100750009F4FFC0184918823D1F090E0880F991F6E
:10076000FC01E859FF4FA591B491FC01EE58FF4FF1
:10077000C591D49161110EC09FB7F8948C91E22F6E
:10078000E0958E238C932881E223E8839FBFDF913D
:10079000CF9108958FB7F894EC91E22BEC938FBF33
:1007A000F6CF3FB7F8948091CF019091D001A091FE
:1007B000D101B091D20126B5A89B05C02F3F19F0F9
:1007C0000196A11DB11D3FBFBA2FA92F982F8827D1
:1007D000BC01CD01620F711D811D911D43E0660FAB
:1007E000771F881F991F4A95D1F708958F929F927E
:1007F000AF92BF92CF92DF92EF92FF926B017C019A
:100800000E94D1034B015C01C114D104E104F10445
:10081000B9F00E94D103681979098A099B09683ED9
:1008200073408105910580F321E0C21AD108E108E7
:10083000F10888EE880E83E0981EA11CB11CE4CF5D
:10084000FF90EF90DF90CF90BF90AF909F908F90F0
:1008500008952FB7F8946091CB017091CC018091ED
:10086000CD019091CE012FBF0895089541155105F6
:1008700029F4EAE7F0E080818F7780836A307105A0
:10088000B9F0CB01880F991F880F991F807267708C
:100890006860682B88E10FB6F894A8958093600093
:1008A0000FBE60936000E0E6F0E0808180648083AA
:1008B000232BD9F483B7817F846083BFF89483B7F7
:1008C000816083BF85B7806685BF8F7D85BF789443
:1008D000889583B78E7F83BF7894452B29F4EAE708
:1008E000F0E0808180688083089583B7817F846091
:1008F00083BFF89483B7816083BF7894889583B76A
:100900008E7F83BF7894E9CFFC01648308958FEFD5
:100910000895FC016583089508952FB7F894FC01AC
:10092000168E825E9E4FFC0110822FBF0895CF93DA
:10093000DF93FC01228133812230310569F0EC0123
:10094000638D818D0E94600360E0888D0E9460034A
:1009500082E090E09B838A83DF91CF910895BF92DC
:10096000CF92DF92EF92FF920F931F93CF93DF937B
:10097000EC01162FB42EC52EF22EDFB6F89460E0EF
:100980008F890E9460038D899E89612F6068DC01D8
:10099000ED91FC910190F081E02D0995E82E0B2D51
:1009A0001C2DFA94BFEFFB1669F08D899E89F80122
:1009B00061918F01DC01ED91FC910190F081E02DBE
:1009C0000995EFCF61E08F890E946003DFBE8E2D15
:1009D000DF91CF911F910F91FF90EF90DF90CF901B
:1009E000BF9008950F931F93CF93FC01C68D8C0188
:1009F000015E1E4FF8012081C21BCC3308F0CBE30F
:100A0000F80140819C01215E3F4F420F532F511D41
:100A10002C2F6FE70E94AF04F8018081C80FC083BC
:100A2000CF911F910F910895BF92CF92DF92EF92D5
:100A3000FF920F931F93CF93DF93EC01162FB42EE9
:100A4000C52EF22EDFB6F89460E08F890E94600315
:100A50008D899E89DC01ED91FC910190F081E02D62
:100A6000612F0995E82E0B2D1C2DFA94BFEFFB1674
:100A700071F08D899E89DC01ED91FC910190F081EE
:100A8000E02D60E00995F80181938F01EECF61E0E0
:100A90008F890E946003DFBE8E2DDF91CF911F9161
:100AA0000F91FF90EF90DF90CF90BF900895FF924D
:100AB0000F931F93CF93DF93EC01162FF42E0FB7F4
:100AC000F89460E08F890E9460038D899E89612F70
:100AD0006068DC01ED91FC910190F081E02D0995B9
:100AE000182F8D899E89DC01ED91FC910190F08198
:100AF000E02D6F2D099561E08F890E9460030FBF83
:100B0000812FDF91CF911F910F91FF900895462F74
:100B1000FC0164836FE30C945705FC01658341E09D
:100B20006427462F419563E40C945705CF93DF93D8
:100B3000EC0142E068E00E94570540E068E0CE0129
:100B40000E945705C25EDE4F1882DF91CF91089553
:100B5000CF93DF93EC01FC01E15EFE4F90818E8D1F
:100B6000981718F4CE010E94F2044E8D6EE3CE0168
:100B70000E9457058A819B81039769F04A8D4860DE
:100B800067E0CE010E945705CE010E94960583E0E2
:100B900090E09B838A83DF91CF9108950F931F93F9
:100BA000CF93DF93EC018C01025E1E4FF801808130
:100BB000811113C02A813B812330310581F08A8164
:100BC0009B81049751F04A8D446067E0CE010E94FA
:100BD000570584E090E09B838A83F8018081DF9150
:100BE000CF911F910F9108950F931F93CF93DF9390
:100BF0008C01EB0148816CE10E94570549816FE14E
:100C0000C8010E945705AE014E5F5F4F26E060E2CB
:100C1000C8010E94AF04AE01485F5F4F23E06CE261
:100C2000C8010E94AF044B8568E5C8010E945705C2
:100C30004C8569E6C8010E945705AE01435F5F4FCE
:100C400025E06EE6C801DF91CF911F910F910C94C2
:100C5000AF04CF93DF93FC01228133812130310532
:100C600049F0EC0140E067E00E94570581E090E028
:100C70009B838A8381E0DF91CF9108950F931F9327
:100C8000CF93DF93EC01162F0FB7F89460E08F89B4
:100C90000E9460038D899E89DC01ED91FC91019099
:100CA000F081E02D612F09958D899E89DC01ED9100
:100CB000FC910190F081E02D60E00995182F61E032
:100CC0008F890E9460030FBF812FDF91CF911F9109
:100CD0000F910895FF920F931F93CF93DF9300D04E
:100CE000CDB7DEB78C0122E0AE014F5F5F4F63E00E
:100CF0000E941405898187FF1FC043E068E0C80196
:100D00000E94570540E068E0C8010E945705D801DD
:100D100012968D919C911397039709F083C082E0FE
:100D200090E013969C938E931297F801E15EFE4F2C
:100D30001082C8010E94A805898185FF0CC0F801B6
:100D4000E15EFE4F9081D8015E968C91981718F461
:100D5000C8010E94F204898184FF1AC0F801868DBF
:100D600090E0C7968F3F910509F090F4468DC80139
:100D70004F96480F592F511D27E36FE7C8010E9476
:100D80001405D8015E968C915E97895C5E968C9373
:100D9000898183FF08C0D801ED91FC9100A4F1A5E1
:100DA000E02DC80109958A8183FF08C0D801ED9123
:100DB000FC9102A4F3A5E02DC8010995298122FF29
:100DC0000AC0F801838994890196948B838B82E011
:100DD00090E09383828321FF65C06BE4C8010E9489
:100DE0003E06F82ED8015E968C915E97F81620F597
:100DF0001F968D919C915097019650969C938E933F
:100E00001F9782E090E013969C938E931297C801EF
:100E10000E948D040F900F90DF91CF911F910F9141
:100E2000FF900895F80182819381049709F084CF9F
:100E3000C8010E948D0480CFF801868D468D2F2D2C
:100E4000281BC8014F96480F592F511D6FE7C80145
:100E50000E94140567E4C8010E943E06D801169658
:100E60008C9368E4C8010E943E06F801878369E418
:100E7000C8010E943E06D80118968C936AE4C80106
:100E80000E943E06F8018187818992890196928BA2
:100E9000818BF68E82E090E09383828381E0E25E34
:100EA000FE4F8083898180FF26C0D8011F968D91D7
:100EB0009C915097019650969C938E931F97C801D2
:100EC0000E948D04C8010E94960582E090E0F8011E
:100ED0009383828382819381049769F0428D446079
:100EE00067E0C8010E94570584E090E0D80113969E
:100EF0009C938E9312978A8186FF8CCF66E2C801FD
:100F00000E943E0686958857F80186870E9429042C
:100F1000F801E05EFE4F6083718382839383C80192
:100F20000E94960574CF8091C8019091C9010097E5
:100F300011F00C946A0608958091C6019091C70142
:100F4000009711F00C946A0608958091C401909165
:100F5000C501009711F00C946A060895CF93DF93B2
:100F6000EC018D899E89DC01ED91FC910680F78171
:100F7000E02D099561E08F890E94A00361E08F89CF
:100F80000E94600364E670E080E090E00E94F60357
:100F900081E0DF91CF9108959FB7F8948091C201CD
:100FA000882319F081508093C2018091C201811180
:100FB00003C08CB58F7B8CBD9FBF08958CB58F7798
:100FC0008CBD08958CB580688CBD08956EBD000001
:100FD0000DB407FEFDCF8EB508959CB59C7F282FDC
:100FE0002370922B9CBD9DB59E7F86958695892BFF
:100FF0008DBD0895CF93DF93FC01268137812115A4
:10100000310509F463C02130310509F45BC0223099
:10101000310509F459C02330310509F057C02CE0DF
:101020009CB5937F922B9CBD84819581019709F09B
:101030004FC08CB580628CBD828193810197C5E0E1
:101040008430910520F4845F9E4FFC01C0818C2F79
:101050000E94ED07DFB7F8948091C201811127C08B
:10106000E0E9F0E08491E4EAF0E09491E82FF0E028
:10107000EE0FFF1FE859FF4FA591B491EC91E923C2
:1010800021F461E08AE00E94600361E08AE00E944E
:10109000A0038CB580618CBD8CB580648CBD61E093
:1010A0008DE00E94A00361E08BE00E94A00380918C
:1010B000C2018F5F8093C201DFBF8C2FDF91CF9180
:1010C0000C94ED0724E0ACCF28E0AACF20E0A8CF15
:1010D0008CB58F7DB0CFFC01738362830895FC01D2
:1010E000778366830895FC0175836483089508956A
:1010F00080E00895FC0181850895FC0180850895B4
:10110000FC0187810895FC01868108954095FC01CA
:1011100025854223642B65870895FC016487089523
:10112000FC0163870895FC01628708958F929F9266
:10113000AF92BF92CF92DF92EF92FF92CF93DF9365
:10114000EC016B010E9429044B015C01F12CE12CA4
:101150000E942904681979098A099B096C157D0583
:101160008E059F0580F48A819B81039789F381E036
:10117000DF91CF91FF90EF90DF90CF90BF90AF9035
:101180009F908F90089580E0F3CFFC0122813381FE
:1011900023303105D1F381E008958F929F92AF9271
:1011A000BF92CF92DF92EF92FF92CF93DF93EC0149
:1011B0006B010E9429044B015C01F12CE12C0E947F
:1011C0002904681979098A099B096C157D058E0522
:1011D0009F05A0F4E881F9810280F381E02DCE0122
:1011E0000995882361F3DF91CF91FF90EF90DF9015
:1011F000CF90BF90AF909F908F90089580E0F3CFF5
:10120000CF93DF93EC01E881F9810280F381E02D37
:10121000CE0109958823B9F3DF91CF91089581E03C
:101220000895CF93DF93EC0161E081E10E946003B8
:10123000BE0190E080E00E94F60360E081E1DF9172
:10124000CF910C9460037F928F929F92AF92BF9246
:10125000CF92DF92EF92FF920F931F93CF93DF9382
:10126000EC016A017B0120E030E040EF53E4CB0168
:10127000B6010E94821687FD65C020E030E040E0A4
:101280005FE3C701B6010E9487166B017C0108E28B
:1012900090E6792E20E030E040E251E4C701B6014B
:1012A0000E9438156B017C010E94D9154B015C012D
:1012B0000E94AA1518EE160F1729A5019401C7015F
:1012C000B6010E94CB1420E030E04AE757E40E94C8
:1012D00087160E94AA15F62EE72E40E063E7CE019E
:1012E0000E94570540E064E7CE010E945705412F58
:1012F00065E7CE010E9457054E2D66E7CE010E949C
:1013000057054F2D67E7CE010E945705402F6AE22F
:10131000CE010E94570562E0CE010E943E0683FB8B
:10132000882780F991E08927DF91CF911F910F9154
:10133000FF90EF90DF90CF90BF90AF909F908F90F5
:101340007F90089500E580E4782EA4CFFC01019001
:101350000020E9F73197AF01481B590BBC0185ED1F
:1013600091E00C9401028F929F92AF92BF920F93E3
:101370001F93CF93DF93CDB7DEB7A1970FB6F89445
:10138000DEBF0FBECDBF19A2423008F44AE08E0185
:101390000F5D1F4F842E912CB12CA12CA50194011F
:1013A0000E94A914E62FB901CA01EA30F4F4E05D05
:1013B000D801EE938D01232B242B252B79F790E078
:1013C00080E0109719F0CD010E94A609A1960FB6F2
:1013D000F894DEBF0FBECDBFDF91CF911F910F916B
:1013E000BF90AF909F908F900895E95CE1CFCF932D
:1013F000DF930E94A609EC0186E791E00E94A6090E
:101400008C0F9D1FDF91CF910895EF92FF920F9364
:101410001F93CF93DF93CDB7DEB764970FB6F894E1
:10142000DEBF0FBECDBF8C010E94AE07E82E81113A
:101430000FC0E12C8E2D64960FB6F894DEBF0FBE60
:10144000CDBFDF91CF911F910F91FF90EF90089545
:10145000D80158968C91823009F4CBC0FF24F394C4
:10146000833039F740E867E0C8010E94570561E022
:1014700070E080E090E00E94F60360E0C8010E9406
:101480003E06F801838F8750823098F660E0808DA9
:101490000E94A00347EB65E0C8010E94570540E4A5
:1014A00066E0C8010E945705D80159968C9159975A
:1014B0008F3F59F48091C301843008F0BACF91E096
:1014C000980F9093C30159968C93F801818DE82F62
:1014D000F0E0EE0FFF1FEC53FE4F1183008365EA2F
:1014E00077E0882349F06CE977E0813029F0823099
:1014F00009F09FCF63E977E08F2D0E948C01D8011E
:1015000012968D919C911397029759F05A964C918F
:1015100067E0C8010E94570582E090E0F8019383DC
:1015200082838FB7F894D8015E961C92F801E15E31
:10153000FE4F10828FBFC8010E948D0444E06DE70A
:10154000C8010E94570547E36EE7C8010E9457058E
:10155000F801448D43704C6860E3C8010E94570550
:1015600048E862E3C8010E94570542E463E3C8010A
:101570000E94570548E064E3C8010E9457058DE2C8
:101580008B8B84ED8C8B22E0AE014D5E5F4F66E36A
:10159000C8010E94AF04D801ED91FC91048CF58D37
:1015A000E02D60E0C801099540E050E069ED73E48A
:1015B000C8010E94230942E150E068EF70E0CE01CB
:1015C00001960E94C811BE016F5F7F4FC8010E9443
:1015D000F40542E16BE0C8010E94570545E16CE06B
:1015E000C8010E9457054BE06DE6C8010E945705EF
:1015F00021CFF12C37CF0E941E17DF92EF92FF927E
:101600000F931F93CF93DF93EC017B01142FE8819D
:10161000F9810484F585E02D09950FB7F8944A8582
:101620006AE3CE010E9457054B856BE3CE010E9411
:1016300057054C856CE3CE010E9457054D856DE33F
:10164000CE010E9457058FB7F8941E8EFE01E15E11
:10165000FE4F10828FBF112329F18E8D412F50E054
:10166000840F952F911D8F3F910509F0D8F4DFB6B7
:10167000F8942E8DCE014F96B701820F911D0E94D6
:1016800023178E8D180F1E8FDFBECE010E94A80576
:1016900081E00FBFDF91CF911F910F91FF90EF90ED
:1016A000DF90089580E0F5CFCF92DF92EF92FF9226
:1016B0000F931F93CF93DF93EC016B018A01E881B5
:1016C000F9810280F381E02D0995F82E8823E1F05D
:1016D000C114D104B1F00115110599F0EFB6F894D9
:1016E0008E8DF8019081891710F48E8D8083F8011A
:1016F000408150E0BE01615E7F4FC6010E9423170A
:10170000EFBECE010E948D048F2DDF91CF911F91EE
:101710000F91FF90EF90DF90CF9008952F923F921E
:101720004F925F926F927F928F929F92AF92BF92F1
:10173000CF92DF92EF92FF920F931F93CF93DF939D
:10174000CDB7DEB7C157D1090FB6F894DEBF0FBED3
:10175000CDBF6E0129E3C20ED11CBC01C6010E949F
:10176000331787E0E5E0F1E0DE01AD59BF4F0190AE
:101770000D928A95E1F7F60101900020E9F7319783
:101780008F010C191D090932110510F008E210E053
:10179000109247031092460310924503109244039F
:1017A000F601E00FF11F3081AD963FAFAD9784E0B9
:1017B000808381E090E0909343038093420348E468
:1017C00050E065E570E082E792E00E942C1733E874
:1017D0003093BA022DE22093BB029AEE9093BC02A2
:1017E00087E28093BD023093FE022093FF02909324
:1017F000000380930103BEEBEB2EB2E0FB2E2EEF35
:1018000032E0170187E991ECA9E8BAE7F101819389
:101810009193A193B1931F01E05CFF4F808391836B
:10182000A283B3832215330589F798012F5F3F4FB9
:10183000AC963FAF2EAFAC9760E078E885E094E4DB
:101840000E94A6016093C6027093C7028093C802EB
:101850009093C902AE014F5F5F4F3A0188E3DA010E
:101860001D928A95E9F789AD0E94EF01A82F80E8C3
:101870008983512C412C912C812CB12CA12C07E077
:1018800010E027E030E0A901B901641B750BE3E625
:10189000F0E0EC0FFD1FE40FF51F31978081062E5D
:1018A00001C0880F0A94EAF78A23021713070CF085
:1018B0003EC090E0201B310B02C0959587952A957C
:1018C000E2F7F301EA0DFB1D9081892B8083041B55
:1018D000150B81F4FFEF8F1A9F0A2FEFA21AB20A9D
:1018E000F301EA0DFB1D31E08316910459F51082D6
:1018F00008E010E06115710509F03AC18FEF481A50
:10190000580AAC96AEADBFADAC974A165B064CF527
:10191000F601E40DF51D80810E94EF01A82F27E05C
:1019200030E0A801021713070CF4AECFACCF20179C
:1019300031073CF6F801E21BF30B01C0880FEA9572
:10194000EAF7BFCF42E08416910421F4108205E04B
:1019500010E0D0CF50E85083912C812C07E010E0AC
:10196000C9CFF2E78F2EF2E09F2E8301A2E04A2E2C
:10197000512CBFEF4B1A5B0AF801F081E296FFAFE2
:10198000E297D80111966C91119770E090E080E099
:10199000AB0133272227E1962CAF3DAF4EAF5FAFAF
:1019A000E1975F2B12966C9170E090E080E0EBE0A5
:1019B000660F771F881F991FEA95D1F7622B732B4B
:1019C000842B952B0E94A601F401A0E14A16510434
:1019D0000CF0CBC0E85AFF4F6083718382839383FE
:1019E0000D5F1F4FB4E08B0E911CC801861997093B
:1019F000A816B9060CF0BDCF0EEB12E0F80141912C
:101A00005191619171918F013497409550956095F6
:101A1000709540835183628373832016310671F77A
:101A2000E2E0F3E022E433E0CF01DC018D909D9011
:101A3000AD90BD90CD01AD0144505109809490947A
:101A4000A094B094DA018D929D92AD92BC921397BE
:101A50002817390751F7D7018C9111969C9111974E
:101A600012962C91129713963C9113973C931196D2
:101A70002C93119712969C93129713968C93B4E023
:101A8000EB0EF11C8081918122813381308321838F
:101A90009283838334960E151F05E9F6AC96EEAD5E
:101AA000FFADAC97EC0DFD1DAD962FADAD9720832E
:101AB0008CE890E030E14316510414F080ED90E0A2
:101AC000909345038093440389E791E00E94A6091F
:101AD000C6010E94F70986E990E00E941109409131
:101AE000440362E772E080E593E00E94FD0AC09043
:101AF0004403D09045030D2C000CEE08FF084AE08B
:101B0000C701B601F7FE0DC06DE285ED91E00E94C0
:101B1000A10266277727CB016C197D098E099F09E1
:101B20004AE00E94B30986E791E00E94A60980E599
:101B300093E00E94C508CF58DF4F0FB6F894DEBF80
:101B40000FBECDBFDF91CF911F910F91FF90EF900E
:101B5000DF90CF90BF90AF909F908F907F906F90CD
:101B60005F904F903F902F900895E45AFF4F34CFED
:101B70009B01D7CE1F920F920FB60F9211242F9375
:101B80003F934F935F936F937F938F939F93AF9305
:101B9000BF93EF93FF9385ED91E00E947F02FF9149
:101BA000EF91BF91AF919F918F917F916F915F91D5
:101BB0004F913F912F910F900FBE0F901F9018954E
:101BC0001F920F920FB60F9211242F938F939F9312
:101BD000EF93FF93E091E501F091E6018081E091C0
:101BE000EB01F091EC0182FD1BC090818091EE0130
:101BF0008F5F8F732091EF01821741F0E091EE012A
:101C0000F0E0EB52FE4F958F8093EE01FF91EF9144
:101C10009F918F912F910F900FBE0F901F9018954D
:101C20008081F4CF1F920F920FB60F9211242F9341
:101C30003F938F939F93AF93BF938091CB019091EC
:101C4000CC01A091CD01B091CE013091CA0126E026
:101C5000230F2D3758F50296A11DB11D2093CA01FF
:101C60008093CB019093CC01A093CD01B093CE0192
:101C70008091CF019091D001A091D101B091D2017A
:101C80000196A11DB11D8093CF019093D001A09327
:101C9000D101B093D201BF91AF919F918F913F91AC
:101CA0002F910F900FBE0F901F90189529E8230FCA
:101CB0000396A11DB11DD2CF1F920F920FB60F92A6
:101CC00011242F933F934F935F936F937F938F9341
:101CD0009F93AF93BF93EF93FF93E0910301F09134
:101CE00004010995FF91EF91BF91AF919F918F9161
:101CF0007F916F915F914F913F912F910F900FBE08
:101D00000F901F9018951F920F920FB60F921124EB
:101D10002F933F934F935F936F937F938F939F93F3
:101D2000AF93BF93EF93FF93E0910101F091020114
:101D30000995FF91EF91BF91AF919F918F917F9105
:101D40006F915F914F913F912F910F900FBE0F9028
:101D50001F9018951F920F920FB60F9211248F9318
:101D60000FB6F894A8958091600088618093600018
:101D7000109260000FBE8F910F900FBE0F901F90BA
:101D800018951F920F920FB60F9211242F933F9325
:101D90004F935F936F937F938F939F93AF93BF9373
:101DA000EF93FF938091020090910300049709F054
:101DB000CAC0809117000E94370321E0892B09F4E3
:101DC00020E080911A00922F9827281729F08091FF
:101DD0001F008F5F80931F0080911E00891709F4F8
:101DE00041C080B12DE1803508F42BE080B1820F35
:101DF00080B990931E0080B1803A08F470C082B11F
:101E000093B19695879593B982B980911F008530DB
:101E100028F082B193B1986093B982B980B1805AA9
:101E200080B910921F0081B1882309F481C084B168
:101E30008F5F84B98C3008F452C082B193B1982F6F
:101E40009F73892F86958695887028E0280F28171C
:101E500069F0E82FF0E0E05FFE4F3081931739F032
:101E60008F5FF5CF80B18C5E80B9C5CF80E090E107
:101E7000899F9001112482B193B136E096958795A0
:101E80003A95E1F7482F95958795959587958870B0
:101E900098E0980F981749F0E82FF0E0E05FFE4FC8
:101EA0005081451719F08F5FF5CF80E0822B90911C
:101EB0006900911125C08093680090916800973067
:101EC00020F0909168009434D8F011B880910F0000
:101ED0009091100001969093100080930F00FF9155
:101EE000EF91BF91AF919F918F917F916F915F9192
:101EF0004F913F912F910F900FBE0F901F9018950B
:101F0000E091690091E09E0F90936900F0E085A355
:101F10009091690080916800981740F011B881E0B5
:101F200080931C0090E080E00E94970414B8D7CF03
:101F300082B193B188339B4091F681E081B914B8A6
:101F400010926900CCCF809102009091030003971A
:101F500031F680916C0091E0980F90936C008111A4
:101F600013C0E0916A008091FB00E817A8F090E0B0
:101F700080E00E94970480911300909114000196D4
:101F8000909314008093130080916C00883008F4C3
:101F9000A6CF10926C00A3CFF0E0E359FF4F608111
:101FA00070E080916B0091E0980F90936B0002C0FD
:101FB000759567958A95E2F76170809118000E9487
:101FC000600380916B008630F8F210926B00809174
:101FD0006A008F5F80936A00D7CFE5EDF1E013824E
:101FE000128288EE93E0A0E0B0E084839583A6831C
:101FF000B78384E291E09183808385EC90E09587BC
:10200000848784EC90E09787868780EC90E0918BC2
:10201000808B81EC90E0938B828B82EC90E0958BAF
:10202000848B86EC90E0978B868B118E128E138EAC
:10203000148EA8E4B3E013961C921E921297159684
:102040001C921E92149717961C921E92169786E366
:1020500091E011969C938E93E0E5F3E01382128257
:102060008FEF84838287838714861586108A17866C
:10207000128A118A148A138AB68BA58B9AE0978BE1
:102080002AE431E03183208392E0908F91E0928FB7
:1020900021E030E0358F248F818F1092430310921E
:1020A000420310924503109244030895CF93DF93A7
:1020B000CDB7DEB7A8970FB6F894DEBF0FBECDBF81
:1020C000789484B5826084BD84B5816084BD85B513
:1020D000826085BD85B5816085BD80916E0081601F
:1020E00080936E00109281008091810082608093C5
:1020F00081008091810081608093810080918000C7
:102100008160809380008091B10084608093B100F1
:102110008091B00081608093B00080917A008460EB
:1021200080937A0080917A00826080937A00809117
:102130007A008E7F80937A0080917A008068809305
:102140007A001092C100E091E501F091E60182E091
:102150008083E091E101F091E2011082E091E301DE
:10216000F091E40187E680831092ED01E091E901AE
:10217000F091EA0186E08083E091E701F091E801C7
:10218000808180618083E091E701F091E8018081A6
:1021900088608083E091E701F091E80180818068A8
:1021A0008083E091E701F091E80180818F7D808359
:1021B00060ED77E080E090E00E94F60387E891E030
:1021C0000E94F70960E083E00E94A00360E084E0E1
:1021D0000E94A00361E081E10E94A00383E00E94CD
:1021E0003703892B09F063C084E00E943703892BF1
:1021F00009F05DC083E08093D40180E593E00E9404
:10220000050A882309F461C087E991E00E94F70973
:102210004AE959E261EE73E480E593E00E94230904
:1022200042E150E066E771E08E010F5F1F4FC80189
:102230000E94C811B80180E593E00E94F4054FE0C8
:102240006DE680E593E00E94570588EE93E00E94DA
:10225000110928EAC22E22E0D22E30E0A32E30E06F
:10226000B32E8091D401833099F595EBE92E92E05D
:10227000F92E8091000191E0980F909300011F9238
:102280008F93FF92EF921F930F930E94D111C80179
:102290000E948E0B60E375E780E090E00E94F603F9
:1022A0000F900F900F900F900F900F90E2CF8EE84D
:1022B00093E0909304018093030180916900837FF0
:1022C000886080936900E99A98CF84EA91E09ECF74
:1022D0008091D4018130B1F58091000191E0980F97
:1022E000909300011F928F93DF92CF921F930F93D1
:1022F0000E94D111C8010E948E0B0F900F900F9079
:102300000F900F900F908CE2E82EFF24F39464E678
:1023100070E080E090E00E94F6036091D40170E0EC
:1023200090E080E04AE00E94B30986E791E00E94D5
:10233000A6098091D401823059F281E0E81AF108AF
:1023400031F7C6CF8091D401823031F485EB91E032
:102350000E948E0B1092D40168EB7BE080E090E04D
:102360000E94F60330E020E050E040E06AE070E0D8
:1023700083ED91E00E943604A114B10409F471CFF9
:102380000E946B02882309F46CCF0E94000069CF81
:10239000FB01DC0102C005900D9241505040D8F77E
:1023A0000895AEE0B0E0E7EDF1E10C9480140D8902
:1023B0001E898EE08C831A8309838FEF9FE79E83AB
:1023C0008D83AE01475E5F4F6F89788DCE01019698
:1023D0000E94F4112F813885020F131FF80110821B
:1023E0002E96E4E00C949C14ABE0B0E0EAEFF1E14F
:1023F0000C9472147C013B018A01FC011782168245
:10240000838181FFC8C1CE0101965C01F7019381F0
:10241000F30193FD859193FF81913F01882309F496
:1024200053C1853239F493FD859193FF81913F012A
:10243000853229F4B70190E00E94E413E7CF912C94
:10244000212C312CFFE1F31538F08B3211F190F48F
:10245000803209F1833229F137FC3CC020ED280F8E
:102460002A3050F536FE20C08AE0989E200D1124B7
:10247000922E06C08D3291F0803371F7689430F857
:10248000F30193FD859193FF81913F018111DACF93
:1024900021C0689431F8689432F8F2CF689433F828
:1024A000EFCF689434F8ECCFEAE02E9E200D112493
:1024B000222E689435F8E4CF8E3229F436FC04C11C
:1024C000689436F8DDCF8C3619F4689437F8D8CF95
:1024D0008836B1F2982F9F7D95549330E0F0833683
:1024E000A1F18337C1F1833509F063C02801F2E01F
:1024F0004F0E511CF801C080D180692D70E036FC70
:1025000002C06FEF7FEFC6010E94CE134C016894AA
:1025100037F882010AC00C5F1F4FFFE3F98388245C
:102520008394912C6501E89437F833FE2DC0522C2A
:102530008114910471F5552009F468CFB70180E248
:1025400090E00E94E4135A94F6CFF80180818983C9
:102550000E5F1F4FE4CF2801F2E04F0E511CF8012F
:10256000C080D180692D70E036FC02C06FEF7FEF34
:10257000C6010E94D9134C018201D5CFB70180E278
:1025800090E00E94E4132A942814190409F0B0F78B
:10259000CECFF60137FC859137FE81916F01B701EF
:1025A00090E00E94E41351105A94F1E08F1A9108C0
:1025B000BFCF843619F0893609F077C0F80137FEAD
:1025C0006BC060817181828193810C5F1F4FF32DFD
:1025D000FF763F2E97FF09C0909580957095619585
:1025E0007F4F8F4F9F4F689437F82AE030E0A50166
:1025F0000E941414C82ECA188C2C432C36FE0CC012
:10260000E89440F8C91440F434FE05C032FC03C01D
:10261000F32DFE7E4F2E892C44FE95C0FE01EC0D5D
:10262000F11D8081803309F087C0242D297E422E40
:10263000842D8870582E43FC95C040FE8FC09C2C82
:10264000821418F42C0C922C981844FE91C0B701F7
:1026500080E390E00E94E41342FE09C088E790E026
:1026600041FE02C088E590E0B7010E94E413C9145E
:1026700008F48AC0CA94D12C9FEFC91AD90ACA0C8F
:10268000DB1CF60182916F01B70190E00E94E41318
:10269000AC14BD04B1F74FCF60817181072E000CDF
:1026A000880B990B0E5F1F4F92CFD32CE894D4F870
:1026B0002AE030E0853739F1232D297FD22E8F365D
:1026C00001F148F48835A9F0F701868197812B96AE
:1026D000E2E10C948E14803749F08837A9F7D4FED4
:1026E00002C06894D2F820E130E00DC06894D4F8BC
:1026F000F6CF34FE03C0822F8660D82E20E132E070
:1027000002C028E030E0F801D7FE0FC0608171817F
:10271000828193810C5F1F4FA5010E941414C82E63
:10272000CA183D2CE89437F867CF6081718190E03A
:1027300080E00E5F1F4FF0CF42FC02C0839478CF41
:102740008394839475CF842D867809F471CFF6CF66
:10275000B70180E290E00E94E41383948214C0F3F6
:10276000512C73CF522C5818821408F46ECFF8CF26
:10277000842D867809F47BCF8BE241FE80E247FC12
:102780008DE2B70190E071CFB70180E390E00E9445
:10279000E4139A946CCF8FEF9FEF99CFFC010590D3
:1027A000615070400110D8F7809590958E0F9F1F53
:1027B0000895FC016150704001900110D8F7809598
:1027C00090958E0F9F1F08950F931F93CF93DF93C4
:1027D000182F092FEB018B8181FD09C01FEF0FEF2F
:1027E000812F902FDF91CF911F910F91089582FF3C
:1027F00014C02E813F818C819D81281739073CF4BC
:10280000E881F981CF0101969983888310838E81B5
:102810009F8101969F838E83E3CFE885F985812F81
:102820000995892BA1F3DACFFA01AA27283051F1B3
:10283000203181F1E8946F936E7F6E5F7F4F8F4FF1
:102840009F4FAF4FB1E03ED0B4E03CD0670F781F50
:10285000891F9A1FA11D680F791F8A1F911DA11D35
:102860006A0F711D811D911DA11D20D009F468946E
:102870003F912AE0269F11243019305D3193DEF616
:10288000CF010895462F4770405D4193B3E00FD0CC
:10289000C9F7F6CF462F4F70405D4A3318F0495DB7
:1028A00031FD4052419302D0A9F7EACFB4E0A6959A
:1028B0009795879577956795BA95C9F700976105BC
:1028C000710508959B01AC010A2E06945795479512
:1028D00037952795BA95C9F7620F731F841F951F07
:1028E000A01D08952F923F924F925F926F927F9218
:1028F0008F929F92AF92BF92CF92DF92EF92FF9210
:102900000F931F93CF93DF93CDB7DEB7CA1BDB0BBB
:102910000FB6F894DEBF0FBECDBF09942A88398860
:1029200048885F846E847D848C849B84AA84B98467
:10293000C884DF80EE80FD800C811B81AA81B98173
:10294000CE0FD11D0FB6F894DEBF0FBECDBFED0187
:102950000895A1E21A2EAA1BBB1BFD010DC0AA1FE0
:10296000BB1FEE1FFF1FA217B307E407F50720F0F8
:10297000A21BB30BE40BF50B661F771F881F991F73
:102980001A9469F760957095809590959B01AC01BC
:10299000BD01CF0108955058BB27AA270E94E31418
:1029A0000C9430160E94221638F00E94291620F04E
:1029B00039F49F3F19F426F40C941F160EF4E09599
:1029C000E7FB0C94F015E92F0E94411658F3BA1753
:1029D000620773078407950720F079F4A6F50C9435
:1029E0007B160EF4E0950B2EBA2FA02D0B01B9012A
:1029F00090010C01CA01A0011124FF27591B99F075
:102A0000593F50F4503E68F11A16F040A22F232F80
:102A1000342F4427585FF3CF469537952795A795D0
:102A2000F0405395C9F77EF41F16BA0B620B730B77
:102A3000840BBAF09150A1F0FF0FBB1F661F771FE8
:102A4000881FC2F70EC0BA0F621F731F841F48F49D
:102A5000879577956795B795F7959E3F08F0B0CF26
:102A60009395880F08F09927EE0F9795879508950D
:102A70000E944C150C9430160E94291658F00E94A2
:102A8000221640F029F45F3F29F00C94F015511103
:102A90000C947C160C941F160E94411668F399231F
:102AA000B1F3552391F3951B550BBB27AA2762174A
:102AB0007307840738F09F5F5F4F220F331F441F57
:102AC000AA1FA9F335D00E2E3AF0E0E832D091508B
:102AD0005040E695001CCAF72BD0FE2F29D0660F78
:102AE000771F881FBB1F261737074807AB07B0E8BB
:102AF00009F0BB0B802DBF01FF2793585F4F3AF0C1
:102B00009E3F510578F00C94F0150C947C165F3FB5
:102B1000E4F3983ED4F3869577956795B795F79546
:102B20009F5FC9F7880F911D9695879597F908952E
:102B3000E1E0660F771F881FBB1F621773078407CA
:102B4000BA0720F0621B730B840BBA0BEE1F88F7D9
:102B5000E09508950E94491688F09F5798F0B92F84
:102B60009927B751B0F0E1F0660F771F881F991FC2
:102B70001AF0BA95C9F714C0B13091F00E947B16D3
:102B8000B1E008950C947B16672F782F8827B85FE3
:102B900039F0B93FCCF3869577956795B395D9F71A
:102BA0003EF490958095709561957F4F8F4F9F4F24
:102BB00008950E94631690F09F3748F4911116F023
:102BC0000C947C1660E070E080E89FEB089526F49A
:102BD0001B16611D711D811D0C94F6150C941116A8
:102BE00097F99F6780E870E060E00895882371F4AA
:102BF000772321F09850872B762F07C0662311F496
:102C000099270DC09051862B70E060E02AF09A95CC
:102C1000660F771F881FDAF7880F9695879597F9C3
:102C200008959F3F31F0915020F4879577956795EF
:102C3000B795880F911D9695879597F908959FEF01
:102C400080EC089500240A94161617061806090643
:102C5000089500240A941216130614060506089512
:102C6000092E0394000C11F4882352F0BB0F40F49A
:102C7000BF2B11F460FF04C06F5F7F4F8F4F9F4FDA
:102C8000089557FD9058440F551F59F05F3F71F05C
:102C90004795880F97FB991F61F09F3F79F08795C3
:102CA0000895121613061406551FF2CF4695F1DF4C
:102CB00008C0161617061806991FF1CF86957105DC
:102CC0006105089408950E944916A0F0BEE7B9175F
:102CD00088F4BB279F3860F41616B11D672F782F34
:102CE0008827985FF7CF869577956795B11D93955F
:102CF0009639C8F30895E894BB2766277727CB0158
:102D000097F908950E94F41608F48FEF08950E9431
:102D10009A160C9430160E94221638F00E9429163A
:102D200020F0952311F00C94F0150C941F1611242B
:102D30000C947C160E94411670F3959FC1F3950F79
:102D400050E0551F629FF001729FBB27F00DB11D2F
:102D5000639FAA27F00DB11DAA1F649F6627B00DBF
:102D6000A11D661F829F2227B00DA11D621F739FA8
:102D7000B00DA11D621F839FA00D611D221F749FB6
:102D80003327A00D611D231F849F600D211D822FFD
:102D9000762F6A2F11249F5750409AF0F1F0882324
:102DA0004AF0EE0FFF1FBB1F661F771F881F915051
:102DB0005040A9F79E3F510580F00C94F0150C94FB
:102DC0007C165F3FE4F3983ED4F38695779567953C
:102DD000B795F795E7959F5FC1F7FE2B880F911D7B
:102DE0009695879597F90895990F0008550FAA0BA6
:102DF000E0E8FEEF16161706E807F907C0F012160E
:102E00001306E407F50798F0621B730B840B950B10
:102E100039F40A2661F0232B242B252B21F4089565
:102E20000A2609F4A140A6958FEF811D811D089502
:102E3000EE0FFF1F0590F491E02D099481E090E0E2
:102E4000F8940C943A17FB01DC0102C001900D923A
:102E500041505040D8F70895DC0101C06D934150B6
:102E60005040E0F70895FB01DC0101900D92002035
:102E7000E1F70895F894FFCF013504350401030705
:102E80000F1F3F7F000404040D0E131516191A1CA2
:102E9000232526292A2C323400000000A102010239
:102EA0002E02EE025F023D02510200000000E60722
:102EB000E207DE07FA07CC0773086F086B0800000B
:102EC0000000050ACE05540BFD0A87040009C50859
:102ED0009608CD088705930890088D0886088D050B
:102EE000830880087D087A0829068C048C040D0A62
:102EF00000504F435341472053454E443A20004928
:102F00006E697469616C6973696E672E2E2E00524A
:102F100046323220696E6974204F4B00524632327D
:102F200020696E6974204641494C4544005445531C
:102F3000542043616E63656C0000FFFFFFFFFFFFDD
:102F4000FFFFFFFFFFFFFFFFFFFFFFFFFFFFFFFF91
:102F5000FFFFFFFFFFFFFFFFFFFFFFFFFFFFFFFF81
:102F6000FFFFFFFFFFFFFFFFFFFFFFFFFFFFFFFF71
:102F7000FFFFFFFFFFFFFFFFFFFFFFFFFFFFFFFF61
:107800000C94343C0C94513C0C94513C0C94513CE1
:107810000C94513C0C94513C0C94513C0C94513CB4
:107820000C94513C0C94513C0C94513C0C94513CA4
:107830000C94513C0C94513C0C94513C0C94513C94
:107840000C94513C0C94513C0C94513C0C94513C84
:107850000C94513C0C94513C0C94513C0C94513C74
:107860000C94513C0C94513C11241FBECFEFD8E036
:10787000DEBFCDBF11E0A0E0B1E0EAE8FFE702C063
:1078800005900D92A230B107D9F712E0A2E0B1E065
:1078900001C01D92AD30B107E1F70E942D3D0C945F
:1078A000C33F0C94003C982F95959595959595958B
:1078B000905D8F708A307CF0282F295A8091C0000B
:1078C00085FFFCCF9093C6008091C00085FFFCCF60
:1078D0002093C6000895282F205DF0CF982F809127
:1078E000C00085FFFCCF9093C6000895EF92FF92F1
:1078F0000F931F93EE24FF2487018091C00087FD22
:1079000017C00894E11CF11C011D111D81E2E8164D
:1079100081EAF80687E0080780E0180770F3E09135
:107920000401F091050109958091C00087FFE9CF1E
:107930008091C6001F910F91FF90EF9008950E94D3
:10794000763C982F8091C00085FFFCCF9093C600B5
:1079500091362CF490330CF09053892F089597555D
:10796000892F08951F930E949F3C182F0E949F3CCF
:107970001295107F810F1F9108951F93182F882350
:1079800021F00E94763C1150E1F71F9108951F935A
:10799000182F0E94763C803249F0809103018F5F5E
:1079A000809303018530C1F01F9108958091C0003C
:1079B00085FFFCCF84E18093C6008091C00085FFE5
:1079C000FCCF1093C6008091C00085FFFCCF80E102
:1079D0008093C6001F910895E0910401F091050184
:1079E00009951F9108950E94763C803241F0809164
:1079F00003018F5F80930301853081F008958091AA
:107A0000C00085FFFCCF84E18093C6008091C00058
:107A100085FFFCCF80E18093C6000895E0910401CA
:107A2000F09105010995089548EC50E08823A1F0F4
:107A30002D9A28EE33E0FA013197F1F721503040CA
:107A4000D1F72D9828EE33E0FA013197F1F7215064
:107A50003040D1F7815061F708953F924F925F9285
:107A60006F927F928F929F92AF92BF92CF92DF924E
:107A7000EF92FF920F931F93CF93DF93000082E06A
:107A80008093C00080E18093C4001092C50088E11B
:107A90008093C10086E08093C2005098589A259A3E
:107AA00081E00E94143D24E1F22E9EE1E92E85E959
:107AB000D82E0FE0C02E10E1B12EAA24A394B1E479
:107AC0009B2EA6E58A2EF2E57F2EE0E26E2E79E46B
:107AD000572E63E5462E50E5352E0E94763C8033C6
:107AE000B1F18133B9F1803409F46FC0813409F404
:107AF00076C0823409F485C0853409F488C08035A5
:107B000031F1823521F1813511F1853509F485C0D6
:107B1000863509F48DC0843609F496C0843709F49B
:107B200003C1853709F472C1863709F466C08091B4
:107B300003018F5F80930301853079F6E0910401A2
:107B4000F091050109950E94763C803351F60E9420
:107B5000F33CC3CF0E94763C803249F78091C0004D
:107B600085FFFCCFF092C6008091C00085FFFCCF5E
:107B70009092C6008091C00085FFFCCF8092C60025
:107B80008091C00085FFFCCF7092C6008091C0003C
:107B900085FFFCCF6092C6008091C00085FFFCCFBE
:107BA0005092C6008091C00085FFFCCF4092C60075
:107BB0008091C00085FFFCCF3092C6008091C0004C
:107BC00085FFFCCFB092C60088CF0E94763C8638F5
:107BD00008F4BDCF0E94763C0E94F33C7ECF0E9409
:107BE000763C803809F49CC0813809F40BC1823896
:107BF00009F430C1883909F48FC080E00E94C73C85
:107C00006CCF84E10E94BD3C0E94F33C66CF85E0CE
:107C10000E94BD3C0E94F33C60CF0E94763C809362
:107C200006010E94763C809307010E94F33C55CFE9
:107C30000E94763C803309F411C183E00E94BD3C70
:107C400080E00E94C73C49CF0E94763C80930902A5
:107C50000E94763C8093080280910C028E7F809374
:107C60000C020E94763C853409F409C18091080217
:107C700090910902892B89F000E010E00E94763C87
:107C8000F801E85FFE4F80830F5F1F4F809108026D
:107C9000909109020817190788F30E94763C8032F8
:107CA00009F045CF80910C0280FFF5C0609106017C
:107CB00070910701660F771F7093070160930601AB
:107CC000A0910802B09109021097C9F0E8E0F1E034
:107CD0009B01AD014E0F5F1FF999FECF32BD21BD53
:107CE000819180BDFA9AF99A2F5F3F4FE417F5070B
:107CF00099F76A0F7B1F70930701609306018091CB
:107D0000C00085FFFCCFF092C6008091C00085FFC7
:107D1000FCCFB092C600E1CE83E00E94C73CDDCE2E
:107D200082E00E94C73CD9CE0E94763C8093090233
:107D30000E94763C80930802809106019091070191
:107D4000880F991F90930701809306010E94763C4B
:107D5000853409F49AC080910C028E7F80930C02C6
:107D60000E94763C803209F0B8CE8091C00085FF39
:107D7000FCCFF092C600A0910802B09109021097C2
:107D8000C1F180910C02082F0170182F1695117007
:107D9000E0910601F0910701AF014F5F5F4FBA011B
:107DA00020E030E00023B1F4112339F49491809164
:107DB000C00085FFFCCF9093C6002F5F3F4FCB01E3
:107DC0000196FA012A173B0780F4BC014F5F5F4F11
:107DD000002351F3F999FECFF2BDE1BDF89A90B5B9
:107DE0008091C00085FFFCCFE6CF709307016093C0
:107DF00006018091C00085FDE5CE8091C00085FF21
:107E0000F8CFE0CE81E00E94C73C67CE0E94763C6E
:107E1000803209F08CCE8091C00085FFFCCFF092BB
:107E2000C6008091C00085FFFCCFE092C600809123
:107E3000C00085FFFCCFD092C6008091C00085FFB6
:107E4000FCCFC092C6008091C00085FFFCCFB092ED
:107E5000C60043CE80E10E94C73C3FCE0E94763CE4
:107E60000E94763C182F0E94763C112309F483C0AF
:107E7000113009F484C08FE00E94C73C2ECE80915F
:107E80000C02816080930C02F1CE80910C02816023
:107E900080930C0265CF809107018823880F880B9F
:107EA0008A2180930B028091060190910701880F2F
:107EB000991F90930701809306018091080280FF2B
:107EC00009C08091080290910902019690930902DD
:107ED00080930802F894F999FECF1127E0910601EA
:107EE000F0910701C8E0D1E0809108029091090269
:107EF000103091F40091570001700130D9F303E084
:107F000000935700E8950091570001700130D9F3B4
:107F100001E100935700E8950990199000915700EE
:107F200001700130D9F301E000935700E8951395F3
:107F3000103498F011270091570001700130D9F3E7
:107F400005E000935700E89500915700017001305B
:107F5000D9F301E100935700E8953296029709F0B2
:107F6000C7CF103011F00296E5CF11248091C000E8
:107F700085FFC5CEC8CE8EE10E94C73CAECD85E957
:107F80000E94C73CAACDF894FFCF8000FFFFFFFFFF
:107F9000FFFFFFFFFFFFFFFFFFFFFFFFFFFFFFFFF1
:107FA000FFFFFFFFFFFFFFFFFFFFFFFFFFFFFFFFE1
:107FB000FFFFFFFFFFFFFFFFFFFFFFFFFFFFFFFFD1
:107FC000FFFFFFFFFFFFFFFFFFFFFFFFFFFFFFFFC1
:107FD000FFFFFFFFFFFFFFFFFFFFFFFFFFFFFFFFB1
:107FE000FFFFFFFFFFFFFFFFFFFFFFFFFFFFFFFFA1
:107FF000FFFFFFFFFFFFFFFFFFFFFFFFFFFFFFFF91
:00000001FF
